:020000040000FA
:100000000221D175A71085A34385A2448593458518
:10001000924675FF0775FE07539BCF53E6DF43E615
:0A00200040754C0A75ECA0C2DA32FC
:10002B00021A737E007D007C008F2B8E2A8D298C0B
:10003B00281226E29004B01208EAAF2BAE2AAD29A3
:0B004B00AC289004B80208EA021D1B5C
:03005B0002236815
:0300630002000395
:10006B000222E50203C7E86480F8E933E833601144
:10007B000460F0ED33EC337009E8FCE9FDEAFEEBCC
:10008B00FF220460DED3EB9FEA9EE99DE8C2E78C7A
:10009B00F0C2F795F0400CE8CCF8E9CDF9EACEFACE
:1000AB00EBCFFB12039285D0F05804700320D5B32D
:1000BB00E80470075002B2D50203D192D5EC04606C
:1000CB00F7E4CCC0E0C398F8603B94186008400D8F
:1000DB00D0E0FB0203A9E4FBFAC9FC8028E830E47A
:1000EB0006E4C9FBE4CAFCE830E305E4C9CACBFC6F
:1000FB00E854076010F8C3E913F9EA13FAEB13FBA2
:10010B00EC13FCD8F130F52FC3E49CFCEF9BFFEE16
:10011B009AFEED99FDD0E0FBEF4E4D4C701222DBB9
:10012B00030203CEEC2CFCEF33FFEE33FEED33FD7D
:10013B00ED30E7EB0203A9EF2BFFEE3AFEED39FDB5
:10014B00D0E0FB50130BBB00030203D1ED13FDEE0C
:10015B0013FEEF13FFEC13FC0203A9EC4D6011E847
:10016B00497017ED33EC3304600DE4FCFFFEFD2208
:10017B00E933E8330470F80203C7120392580460A2
:10018B0009E4CC248150062850090203D1284003EE
:10019B000203CEC0E0EB4A7044B98006D0E0FB020C
:1001AB0003BDEF4E701CBD8008EBFFEAFEE9FD803E
:1001BB00EBE98DF0A4FEE5F002024FE9CDF9EAFE82
:1001CB00EBFFEF89F0A4FCE5F0CE89F0A42EFFE461
:1001DB0035F0CD89F0A42DFEE435F08067EF4E703D
:1001EB0005BD80D780C3EF8BF0A4ACF0EE8BF0A4F1
:1001FB002CFCE435F0F8EF8AF0A42CE5F038FCE4A5
:10020B0033CB8DF0A42CFCE5F03BF8EE8AF0A42C5C
:10021B00FCE5F038F8E433CF89F0A42CFCE5F0389A
:10022B00CF3400CE89F0A42FFFE5F03EFEE433C9B6
:10023B008DF0A42EFEE5F039CD8AF0A42FFFE5F06A
:10024B003EFEE43DFD33D0E0FB50070BBB000F023D
:10025B0003D1EC2CFCEF33FFEE33FEED33FD020349
:10026B00A90203D1EC5D046005E859047003020395
:10027B00C7120392580460F6EC4860F2EC7004FD70
:10028B00FEFF22C860DB2481C85009C3986002506E
:10029B00060203CE9850CAF582E9294B4A7005AB8A
:1002AB00820203BD75F0007C1A7880C3EF9BEE9A37
:1002BB00ED99400DC3EF9BFFEE9AFEED99FDE842E1
:1002CB00F0DC23ACF0D0E0FFD0E0FED0E0FDAB8261
:1002DB0020E7101BEB60BAEC2CFCEF33FFEE33FE88
:1002EB00ED33FD0203A9E803F830E705C0F075F024
:1002FB0000EF2FFFEE33FEED33FD40B830E7C28049
:10030B00AAED33EC33600A047003BD8004ECB2E752
:10031B00FC2275F020800E75F010800575F0087DBD
:10032B00007E007F003392D530D5031208ABEC333F
:10033B004010EF33FFEE33FEED33FDEC33FCD5F025
:10034B00ED22E5F0247EA2D513CC92E7CDCEFF2291
:10035B00EDD2E7CD33EC3392D524814006E4FFFE9A
:10036B00FDFC22FCE4CFCECDCC24E0501174FF80F9
:10037B00EDC3CC13CCCD13CDCE13CECF13CF047096
:10038B00F030D5DE0208ABE9D2E7C933E833F89297
:10039B00D5EDD2E7CD33EC33FC5002B2D522EC30A5
:1003AB00E7100FBF000C0EBE00080DBD00040BEBD9
:1003BB006014A2D5EB13FCED92E7FD2274FFFCFD5C
:1003CB00FEFF22E480F8A2D574FF13FC7D80E4804D
:1003DB00EFF920E72824F950037907E4F42402FB12
:1003EB0018DBFDE624FB5014E9600DE4F618E60477
:1003FB00F6B40A08E4F6D9F57401F60A22C2D5223E
:10040B00ED33EC3392D5FA602AB4FF33EDC2E77BC0
:10041B00FF60067A047930E4227A04793920D50416
:10042B007A047934224E614E002B494E46002D49F9
:10043B004E4600E47A08F608DAFC7B00740722E8E3
:10044B00C0E0ECC0E0EDC0E0EEC0E0EFC0E0EA756C
:10045B00F010A4CAABF075F04DA42BFBE435F0FC07
:10046B00EA2410FAEB34C5FBEC34D9FCEDC2E7FF00
:10047B0075F056A4F42411C5F0F434C58FF0A42AFA
:10048B00E5F03BE43CF620E71412058BD0E0FFD0FF
:10049B00E0FED0E0FDD0E0FC12026F8014F40412F9
:1004AB00058BD0E0FFD0E0FED0E0FDD0E0FC1201E8
:1004BB0066D0E0F8E6FAEDD2E7CD33EC332482FBDD
:1004CB00E4C3CF33CFCE33CECD33CD33DBF37B078A
:1004DB0075F00A846004F6081B0AE5F0F6088FF045
:1004EB00740AA4FFACF08EF0740AA42CFEACF0508E
:1004FB00010C8DF0740AA42CFDE435F0F608DBDE5C
:10050B00740722C0E0EFFBEEFAEDF9ECF81201668E
:10051B00D0E0F5F0EFFBEEFAEDF9ECF81208CAA318
:10052B00A3A3A3E8C0E0E9C0E0EAC0E0EBC0E0C0F1
:10053B00F01201661208DAA3A3A3A3120075D0F080
:10054B00D0E0FBD0E0FAD0E0F9D0E0F8D5F0D4223F
:10055B003F8000004120000042C80000447A0000A8
:10056B00461C400047C35000497424004B1896802A
:10057B004CBEBC205A0E1BCA6753C21C749DC5AE21
:10058B00FB60065407601C23231205B9EB5438603B
:10059B00091205A51205B4120166ECF8EDF9EEFA95
:1005AB00EFCB22EB1205B480F1543803241C9005D9
:1005BB005BFE93FC0EEE93FD0EEE930ECE93FF229D
:1005CB00E709F608DFFA8046E709F208DFFA803E12
:1005DB0088828C83E709F0A3DFFA8032E309F608FF
:1005EB00DFFA8078E309F208DFFA807088828C8367
:1005FB00E309F0A3DFFA806489828A83E0A3F6081B
:10060B00DFFA805889828A83E0A3F208DFFA804CF4
:10061B0080D280FA80C680D4806980F280338010CB
:10062B0080A680EA809A80A880DA80E280CA803334
:10063B0089828A83ECFAE493A3C8C582C8CCC583AC
:10064B00CCF0A3C8C582C8CCC583CCDFE9DEE7807C
:10065B000D89828A83E493A3F608DFF9ECFAA9F0FB
:10066B00EDFB2289828A83ECFAE0A3C8C582C8CC51
:10067B00C583CCF0A3C8C582C8CCC583CCDFEADE6A
:10068B00E880DB89828A83E493A3F208DFF980CCCC
:10069B0088F0EF60010E4E60C388F0ED2402B404C5
:1006AB000050B9F582EB2402B4040050AF2323456C
:1006BB00822390061B73BB010689828A83E022503A
:1006CB0002E722BBFE02E32289828A83E49322BBE8
:1006DB00010CE58229F582E5833AF583E022500689
:1006EB00E92582F8E622BBFE06E92582F8E222E53F
:1006FB008229F582E5833AF583E49322BB010689CF
:10070B00828A83F0225002F722BBFE01F322EF8D87
:10071B00F0A4A8F0CF8CF0A428CE8DF0A42EFE224E
:10072B00BB010A89828A83E0F5F0A3E02250068799
:10073B00F009E71922BBFE07E3F5F009E31922895B
:10074B00828A83E493F5F074019322BB0110E58256
:10075B0029F582E5833AF583E0F5F0A3E022500911
:10076B00E92582F886F008E622BBFE0AE92582F825
:10077B00E2F5F008E222E5832AF583E993F5F0A38D
:10078B00E99322E88FF0A4CC8BF0A42CFCE98EF03B
:10079B00A42CFC8AF0EDA42CFCEA8EF0A4CDA8F0DE
:1007AB008BF0A42DCC3825F0FDE98FF0A42CCD35A2
:1007BB00F0FCEB8EF0A4FEA9F0EB8FF0A4CFC5F00C
:1007CB002ECD39FEE43CFCEAA42DCE35F0FDE43C05
:1007DB00FC2275F008758200EF2FFFEE33FECD3350
:1007EB00CDCC33CCC58233C5829BED9AEC99E58297
:1007FB0098400CF582EE9BFEED9AFDEC99FC0FD523
:10080B00F0D6E4CEFBE4CDFAE4CCF9A88222B80012
:10081B00C1B90059BA002DEC8BF084CFCECDFCE5DD
:10082B00F0CBF97818EF2FFFEE33FEED33FDEC3301
:10083B00FCEB33FB10D703994004EB99FB0FD8E586
:10084B00E4F9FA227818EF2FFFEE33FEED33FDECCF
:10085B0033FCC933C910D7059BE99A4007EC9BFCC5
:10086B00E99AF90FD8E0E4C9FAE4CCFB2275F01051
:10087B00EF2FFFEE33FEED33FDCC33CCC833C81076
:10088B00D7079BEC9AE899400AED9BFDEC9AFCE8A4
:10089B0099F80FD5F0DAE4CDFBE4CCFAE4C8F922F1
:1008AB00C3E49FFFE49EFEE49DFDE49CFC22EB9FD2
:1008BB00F5F0EA9E42F0E99D42F0E89C45F022E417
:1008CB0093FC740193FD740293FE740393FF22E473
:1008DB0093F8740193F9740293FA740393FB22EC6B
:1008EB00F0A3EDF0A3EEF0A3EFF022A8828583F046
:1008FB00D083D08212090D12090D12090D12090DA8
:10090B00E473E493A3C583C5F0C583C8C582C8F05F
:10091B00A3C583C5F0C583C8C582C822A42582F5AB
:10092B0082E5F03583F58322FAE6FB0808E6F92524
:10093B00F0F618E6CA3AF622D083D082F8E4937028
:10094B0012740193700DA3A393F8740193F582882D
:10095B0083E4737402936860EFA3A3A380DFE709BA
:10096B00F608DFFA807BE9D39850F3E92FF9E82FEB
:10097B00F819E718F6DFFA8068E709F208DFFA8062
:10098B006080E388828C83E709F0A3DFFA8052E36F
:10099B0009F608DFFA804AE9D398500EE92FF9E8F7
:1009AB002FF819E318F2DFFA8037E309F208DFFAC0
:1009BB00802F88828C83E309F0A3DFFA802389825E
:1009CB008A83E0A3F608DFFA801789828A83E4938F
:1009DB00A3F208DFF9800A89828A83E0A3F208DF99
:1009EB00FA020A7B80B180F980A580C680DC80F199
:1009FB0080738010808380E98087808780D980E135
:100A0B0080BC8073D3E998EA9C5039E92FF582EAD0
:100A1B003BF583E82FF8EC3BFC0582D5820215836E
:100A2B001582E493C8C582C8CCC583CC0582D58218
:100A3B000215831582F0C8C582C8CCC583CCDFD91B
:100A4B00DED7802E89828A83ECFAE493A3C8C58211
:100A5B00C8CCC583CCF0A3C8C582C8CCC583CCDFBA
:100A6B00E9DEE7800D89828A83E493A3F608DFF938
:100A7B00ECFAA9F0EDFB22D3E998EA9C5038E92F68
:100A8B00F582EA3BF583E82FF8EC3BFC0582D58237
:100A9B000215831582E0C8C582C8CCC583CC0582FC
:100AAB00D5820215831582F0C8C582C8CCC583CC0C
:100ABB00DFDADED880BC89828A83ECFAE0A3C8C572
:100ACB0082C8CCC583CCF0A3C8C582C8CCC583CCA7
:100ADB00DFEADEE8809C809888F08E83EF60010E61
:100AEB004E608DED2402B404005085F582EB240298
:100AFB00B4040050E123234582AB83239009EF73A9
:100B0B007580E775A43875F17D75D4FA7590FD7510
:100B1B00A56E75F26E75D57975A003E4F5A675A76C
:100B2B002075F303F5A775E3407F64800E208010DA
:100B3B00C2827F0A122710D2827F0A12271080ED01
:100B4B00C2807F0A122710D2807F0A12271075E10C
:100B5B000475E202758E7E758922758DEB758BEBB4
:100B6B00D28E75CBA075CA4C75CDA075CC4C75C803
:100B7B000475A71075A60CE4F5A775A72075ADCC69
:100B8B0075840475B9CC75851075BCCC75C7CC75DF
:100B9B00912475923475B18075BB8075BD8075CA13
:100BAB008075CB0FF5A775AC1075C1D175B20175FA
:100BBB00BB0875BC0975B38175B9BF75DF4F75D1AE
:100BCB00ACD2ADD2AF1227187F647E007D007C00C3
:100BDB00121FED1220A4E4FF122658E4FDFF12268B
:100BEB00D578257C007D007BFF7A5579327E007F9E
:100BFB000512069B752A017BFF7A5579BC1224BC22
:100C0B007525FF7526557527C8E4F528F529752A2E
:100C1B00017B017A04799C12120E7D18E4FF1226D7
:100C2B00D578257C007D007BFF7A55792D7E007F62
:100C3B000512069B752A017B017A04799C1224BC50
:100C4B001225967FB87E0B7D007C00121FED7F076F
:100C5B001226C49004C11208F6000000009004BDD7
:100C6B001208F6000000009004DB1208F6000000EA
:100C7B0000754B0C12162112271E8F57E55724FCBB
:100C8B007003020D7024E3601924FD7003020D70D4
:100C9B0024E27003020D3824C0603024816003020B
:100CAB000DB9E55C455B455A7003020DB9D3E54FB1
:100CBB009400748094805003020DB9154FE54F9545
:100CCB00594003020DB91559020DB9E55C455B4559
:100CDB005A7010F54FF559755AFF755B56755CD008
:100CEB00020DB9AB5AAA5BA95C900005120756FF1F
:100CFB00AEF0F5828E8375F013E54F120927740160
:100D0B00937002E4937003020DB9E4F54FF5598F1C
:100D1B00828E8375F013E54F120927E493FE74015D
:100D2B0093AA06755AFF8A5BF55C020DB9E55C4523
:100D3B005B455A6079AB5AAA5BA95C90000312071A
:100D4B0056FFAEF04E700CF54FF559F55AF55BF5B5
:100D5B005C805BE4F54FF559AA06A907755AFF8A23
:100D6B005B895C8049E55C455B455A602FAB5AAAB1
:100D7B005BA95C9000021206DA14FFE54FC39F508B
:100D8B002D054FE5592403FFE433FED3E54F9FEECA
:100D9B006480F87480984016055980129004BDE069
:100DAB00FCA3E0FDA3E0FEA3E0FFA31208EAE55CD1
:100DBB00455B455A7003020FB0E4FF122658E4FD61
:100DCB00FF1226D5AB5AAA5BA95C12072BAAF0F926
:100DDB007BFFC003C002C00178257C007D007A55E3
:100DEB00792D7E007F0512069B752A01D001D0025A
:100DFB00D0031224BC75250B7526017B7F7D0BE47C
:100E0B00FF121F1E7D11E4FF1226D5AB5AAA5BA958
:100E1B005C900005120756F58285F08375F013E59B
:100E2B0059120927740293FE740393AA06F97BFFE8
:100E3B00C003C002C00178257C007D007A55792D56
:100E4B007E007F0512069BE5597F01B54F027F009F
:100E5B008F2AD001D002D0031224BC7D1DE4FF12D7
:100E6B0026D5AB5AAA5BA95C900005120756F582F2
:100E7B0085F08375F013E559120927741593FE74E9
:100E8B001693AA06F97BFFC003C002C00178257C2C
:100E9B00007D007A55792D7E007F0512069BE55962
:100EAB002401FFE433FE7C00EFB54F08ECB50604DC
:100EBB007F0080027F018F2AD001D002D003122441
:100ECB00BC7D29E4FF1226D5AB5AAA5BA95C900026
:100EDB0005120756F58285F08375F013E559120953
:100EEB0027742893FE742993AA06F97BFFC003C0CD
:100EFB0002C00178257C007D007A55792D7E007F1C
:100F0B000512069BE5592402FFE433FE7C00EFB586
:100F1B004F08ECB506047F0080027F018F2AD001B9
:100F2B00D002D0031224BC7D35E4FF1226D5AB5A78
:100F3B00AA5BA95C900005120756F58285F08375B4
:100F4B00F013E559120927743B93FE743C93AA06E0
:100F5B00F97BFFC003C002C00178257C007D007ABD
:100F6B0055792D7E007F0512069BE5592403FFE47E
:100F7B0033FE7C00EFB54F08ECB506047F00800212
:100F8B007F018F2AD001D002D0031224BC7D0CE448
:100F9B00FF1226D57D24E4FF1226D57D30E4FF1207
:100FAB0026D50211ACE4FF1226581226E2E47BE8A8
:100FBB007A03F9F81208198F2B8E2A8D298C287534
:100FCB0025FF7526557527D87B017A04799C12125B
:100FDB000EE4FDFF1226D578257C007D007BFF7A81
:100FEB0055792D7E007F0512069B752A017B017AB0
:100FFB0004799C1224BC7525FF7526557527E69040
:10100B0004DBE0FCA3E0FDA3E0FEA3E0F52B8E2ABE
:10101B008D298C287B017A04799C12120E7D18E4A1
:10102B00FF1226D578257C007D007BFF7A55792D24
:10103B007E007F0512069B752A017B017A04799C41
:10104B001224BC7525FF7526557527EF854C287B1B
:10105B00017A04799C12120E7D0CE4FF1226D578CE
:10106B00257C007D007BFF7A55792D7E007F051254
:10107B00069B752A017B017A04799C1224BC7D2482
:10108B00E4FF1226D5E5416401701D78257C00FD37
:10109B007BFF7A55792DFE7F0512069B752A017B06
:1010AB00FF7A5579FA02114AE5416402701C7825E2
:1010BB007C00FD7BFF7A55792DFE7F0512069B7513
:1010CB002A017BFF7A5679078075E5416404701C11
:1010DB0078257C00FD7BFF7A55792DFE7F05120666
:1010EB009B752A017BFF7A5679128053E541640880
:1010FB00701C78257C00FD7BFF7A55792DFE7F05D2
:10110B0012069B752A017BFF7A56791E8031752555
:10111B00FF75265675272B8541287B017A04799C10
:10112B0012120E78257C007D007BFF7A55792D7E7F
:10113B00007F0512069B752A017B017A04799C12AC
:10114B0024BC7525FF7526567527379004C1E0F82A
:10115B00A3E0F9A3E0FAA3E0FB9004BDE0FCA3E05D
:10116B00FDA3E0FEA3E0FF1200718F2B8E2A8D29C9
:10117B008C287B017A04799C12120E7D30E4FF12CD
:10118B0026D578257C007D007BFF7A55792D7E0056
:10119B007F0512069B752A017B017A04799C122428
:1011AB00BC122596020C7FE5392425F8E605392279
:1011BB0078223007027825E475F001120933020614
:1011CB00C12000EB7F2ED2008018EF540F2490D457
:1011DB003440D4FF30040BEF24BFB41A0050032467
:1011EB0061FFE53A6002153A053DE53D7002053CAD
:1011FB0030070D7822E475F001120933EF0207076F
:10120B000226317403D2078003E4C207F5398B221F
:10121B008A238924E4F53AF53CF53DE53A60077FEE
:10122B00201211ED80F5753BFFC201C200C202C254
:10123B0003C205C206C2081211BBFF700D300705B1
:10124B007F001211FEAF3DAE3C22B4255FC2D5C26A
:10125B00041211BBFF24D0B40A00501A75F00A789F
:10126B003A30D50508B6FF0106C6A426F620D504EC
:10127B007002D20380D924CFB41A00EF5004C2E518
:10128B00D2040214EBD20180C6D20080C0D20280FD
:10129B00BCD2D580BAD20580B47F201211ED2002CA
:1012AB00077401B53A0040F11211B2FF1211ED02B1
:1012BB001226D208D20680951211B2FB1211B2FA85
:1012CB001211B2F94A4B700679E27A157BFF2002B4
:1012DB002EE53A602A7E008E827583001206DA6054
:1012EB00060EEE653B70F0C2D5EBC0E0EAC0E0E95C
:1012FB00C0E0EE12154BD0E0F9D0E0FAD0E0FB12D3
:10130B0006C1FF60AAEBC0E0EAC0E0E9C0E0121141
:10131B00EDD0E02401F9D0E03400FAD0E0FBE53B5E
:10132B000460DCD53BD98087D20280A212152E60D7
:10133B00F7E53B7001041203DCA93B600DE53B6054
:10134B000914F53B1215D5EF60F3EA30E702F4040C
:10135B00C3995077EAF4253B0430E701E404F53BED
:10136B00800D12152E60C1EA053B253B1203DCEA0A
:10137B007838F630E701E4253B04D53B0420050122
:10138B001412154BE4C0E01215D57838E660132023
:10139B00E70714F61211D5802204F6D0E014C0E052
:1013AB007F001211D5E53B60071211CC153B800B6A
:1013BB003005031211CCD0E0021226D0E00480C518
:1013CB0012152E60A0E53B041203DC7838EAF6E533
:1013DB003B200502600104240412154B74FF04C06A
:1013EB00E01215D51211D5E53B2005026003121151
:1013FB00CCD0E0B53BE87F451211DF7838E67F2B88
:10140B0030E7047F2DF404C0E01211EDD0E075F04D
:10141B000A84C0F01211D6D0E01211D6021226792E
:10142B001080027908C206C2088008D2D5790A80DA
:10143B0004790AC2D5E53B047002F53BE4FAFDFEE4
:10144B00FF1211B2FC7B082001131211B2FD7B10AD
:10145B0030000A1211B2FE1211B2FF7B20EC338264
:10146B00D592D55013C3E43000069FFFE49EFEE4F3
:10147B002001039DFDE49CFCE4CBF8C201EC700C55
:10148B00CFCECDCCE824F8F870F38017C3EF33FF41
:10149B00EE33FEED33FDEC33FCEB33FB994002FBFB
:1014AB000FD8E9EB300105F8D0E0C448B201C0E039
:1014BB000AEC4D4E4F78207B0070C2EAB53B0040E2
:1014CB00BCC0E012154DD0F0D0E0200104C4C0E048
:1014DB00C4B201C0F01211D6D0F0D5F0EB02122637
:1014EB0012094312C353142A5812944C12904214EB
:1014FB002E4F14364414364912A943143C55136D20
:10150B004613CB4513374716025012982D129C2EBB
:10151B0012BF2B12A02312BD2015EB2A1258480024
:10152B000012B7E53BB4FF03753B061211B2FC1278
:10153B0011B2FD1211B2FE1211B2FF783102040B7F
:10154B00790AA2D5200314300509B910020404B995
:10155B00080104A2D5200602500104200268920261
:10156B00B53A005034C0E07F203003197F30A2021F
:10157B0072067205500F1215A4C202C206C205C232
:10158B00087F30800F300503E9C0E01211ED300504
:10159B0003D0E0F9D0E0B53ACC3005177F30B91065
:1015AB000C1211ED7F583004077F788003B90803C4
:1015BB001211ED3002057F2D0211ED7F202008F86E
:1015CB007F2B2006F322920280CF7F00B4070050BE
:1015DB00052431F8E6FF22286E756C6C2900D201C8
:1015EB001211B23001F8C201783A30D50108F60277
:1015FB0012582D504349581211B22403B405004020
:10160B0001E49015FD931211DE743A1211DED20330
:10161B00753A0402142A854C22AF4BEF6029C2AFF6
:10162B0053E687D2AF7F10122513C28CC2DEC2EEF7
:10163B00C2EF5391FB75A7105398FBE4F5A7122447
:10164B005A854B4CE4F54BE52264017003021A7288
:10165B00E4FFFEFDFC9004B8E0F8A3E0F9A3E0FA88
:10166B00A3E0FBD31208B940359004B8E0FCA3E02B
:10167B00FDA3E0FEA3E0F52F8E2E8D2D8C2C900478
:10168B00B0E0FCA3E0FDA3E0FEA3E0FF12260440C4
:10169B0003021A729004B81208F600000000E5224B
:1016AB0024FD70030217881470030217991470033A
:1016BB000217A724FD70030217C724FD700302183D
:1016CB00181470030218CB24FE7003021984240C27
:1016DB006003021A7275B20175BB0775BC0975B34D
:1016EB008575B9BF75DF4F43E8C07F061226C475F9
:1016FB00A72075BCCC75C7CC75915475923475BD4C
:10170B008075CA8075CB0CE4F5A775A710759F7F04
:10171B0075AA0F75990D75AC3A759D1B75AB1B753D
:10172B009B8875BF88F5A7538EFB5389FC438902B1
:10173B00758C80758A8075A710759812F5A5F5A420
:10174B0075FF06759110F595F59475FE06F5A77561
:10175B00D904F59E759C4375F70375DAC275DBC228
:10176B0075DC49F5FB75FC0175E90475EA01F5EBD0
:10177B0075EC02759603F5F9F5FA754C037F1012AB
:10178B0025137599087F0A12002E754C04227F20B1
:10179B001225137F0212002E754C0522E59B30E6B5
:1017AB000D7F1012251375990D754C088003754C20
:1017BB00037F0A7E007D007C00020034E4F5FB759C
:1017CB00FC0175E90475EA01F5EB75EC02F5F9F529
:1017DB00FAD2DEC28C12245AE4FF122513E54170B3
:1017EB0003754101854142AF4112255BC2DA539B20
:1017FB00CF53BFCF75A710C2AF439804439104E4F6
:10180B00F5A7D28C754C0943E630D2AF22E54D30AB
:10181B00E30DE4F527F5267525847524418031E524
:10182B004D30E20DE4F527F526752525752443800B
:10183B001FE54D30E10E7527007526407525CE75D9
:10184B002444800C7527007526E875258075244681
:10185B00C3E54A9546FFE5499545FEE5489544FDA8
:10186B00E5479543FC9004D71208EA7FF87E9A7DF2
:10187B00747C3F121C1AAB27AA26A925A824120197
:10188B0066C004C005C006C0079004D7E0FCA3E007
:10189B00FDA3E0FEA3E0FFE412031DE4FBFA79C411
:1018AB00784112026F12030CD003D002D001D0008A
:1018BB0012026F9004DB1208EA754C01754B0C2277
:1018CB007F071226C475B28175BB0875BC0975B349
:1018DB008175B9BF75DF4F43E8C075A72075C70F7A
:1018EB0075925375CA8075CB08E4F5A775A710538D
:1018FB00A6FB43A60475D3FE75D2F875D5FE75D439
:10190B00F875F160D2C2F5A7538EFB438E04538951
:10191B00FC438902758CE8758AE875D904759E07B6
:10192B00759C0775F70375DA4275DB4275DC4275FA
:10193B00FBEF75FC0775E9FA75EA0775EBEE75ECCD
:10194B000743F78075FBEF75FC0775E9FA75EA0736
:10195B0075EBEE75EC0753F77F75960312245AE47B
:10196B00FF1225137F0412255BE4F54E754C0D43D6
:10197B00E608F59CD2DED28C22E54D30E30DE4F582
:10198B0027F5267525847524418031E54D30E20D10
:10199B00E4F527F526752525752443801FE54D3085
:1019AB00E10E7527007526407525CE752444800CF5
:1019BB007527007526E87525807524469004C6E0CA
:1019CB00F8A3E0F9A3E0FAA3E0FBA3E0FCA3E0FD9E
:1019DB00A3E0FEA3E0C39BFFEE9AFEED99FDEC980E
:1019EB00FCE412031D9004BD1208EA9004BDE0F85C
:1019FB00A3E0F9A3E0FAA3E0FBC000C001C002C062
:101A0B0003E4FFFE7D7A7C44AB27AA26A925A824F4
:101A1B00120166D003D002D001D0001201669004EF
:101A2B00BD1208EA9004BDE0FCA3E0FDA3E0FEA319
:101A3B00E0FF7B007AC079FF784912026F9004BDFA
:101A4B001208EA9004BDE0FCA3E0FDA3E0FEA3E0D6
:101A5B00FFE4FBFA792078411200719004BD120863
:101A6B00EA754C01754B0222C0E0C0D075D000C0A6
:101A7B0004C005C006C007E5602401F560E4355FCE
:101A8B00F55FE4355EF55EE4355DF55DAF60AE5F49
:101A9B00AD5E4D4E4F7002056575A700C2CF7F013D
:101AAB0030A1027F008F687F0230A0027F00EF42DF
:101ABB00687F043086027F00EF4268E568656660E8
:101ACB0003756700E568700DE5627009F561F562F5
:101ADB00F563021BD6C3E56794147480948050059C
:101AEB000567021BD6E5687016E5647012E569445C
:101AFB0080F564856869756200756100756700E53E
:101B0B0068F4FFE56954BFFDED5F6021E564600398
:101B1B00021BD6E568F45569FFE56954404F4480D4
:101B2B00F564856869756200756100804CAF627EF3
:101B3B0000EF7016E5646003021BD6856864856848
:101B4B00690563F5670562021BD6C3EF94FAEE6471
:101B5B008094804029E5619405748094805004053D
:101B6B00618016E5647064F561E5684420F564E511
:101B7B006954404568F5690563756700804DAF6230
:101B8B007E00EF640F700EE5647040E5684440F52D
:101B9B0064F5698031C3EF9419EE6480948040261C
:101BAB00E561940C74809480500405618018E564A1
:101BBB007019F561E5684420F564E56954404568A2
:101BCB00F569056380007567000562856866D00757
:101BDB00D006D005D004D0D0D0E0323E9248DA3EC9
:101BEB00CCCCCD3F2AAAAB400000003F8000003F89
:101BFB009837F03FB504F33FD744FC3E3172173EA4
:101C0B00B172173F0515913EDE5BD9D2018002C23E
:101C1B0001EDD2E7F8CD33EC3304700BBD800592A8
:101C2B00D50203D10203C740FBD31460F2F5F07C5D
:101C3B003FEE7A00C39496C8948B40230AC89469EC
:101C4B00C8941A401A0AC89468C8941F40110AC84D
:101C5B00945AC89425400805F07A00CDC2E7CDC050
:101C6B00F08C288D298E2A8F2BEA2323C0E024F6B3
:101C7B00F582E4341BF5831208DA120075ECC0E030
:101C8B00EDC0E0EEC0E0EFC0E01208CAA828A92919
:101C9B00AA2AAB2B120071D0E0FBD0E0FAD0E0F90E
:101CAB00D0E0B2E7F812026F8C288D298E2A8F2B89
:101CBB00901BE6740312050EA828A929AA2AAB2BA0
:101CCB00120166D0E0600F2402F582E4341CF58328
:101CDB001208DA1200758C288D298E2A8F2BD0E0F2
:101CEB00C3947FFDE49400FC1203227B187A727973
:101CFB0031783F120166A828A929AA2AAB2B12001A
:101D0B007530010B7BD97A5B79DE783E1201662246
:101D1B00C0E0C0F0C083C082C0D075D000C000C08E
:101D2B0001C002C003C004C005C006C00785BE3E8B
:101D3B0085BD3FC2EDE54E14603C14606824026023
:101D4B0003021DE0C3E540941074809480400302AD
:101D5B001DE09004C6E0F8A3E0F9A3E0FAA3E0FBD2
:101D6B00E4FCFDEB253FFFEA353EFEED39FDEC389B
:101D7B00FC9004C6805CC3E5409410748094805042
:101D8B00549004CAE0F8A3E0F9A3E0FAA3E0FBE463
:101D9B00FCFDEB253FFFEA353EFEED39FDEC38FC53
:101DAB009004CA802DC3E540941074809480502514
:101DBB009004CEE0F8A3E0F9A3E0FAA3E0FBE4FC87
:101DCB00FDEB253FFFEA353EFEED39FDEC38FC908F
:101DDB0004CE1208EA054EE54E64037043C3E5409A
:101DEB00941074809480500D0540E5406410702D64
:101DFB00754C0E8028AF4CEF640E6021754000903F
:101E0B0004C61208F6000000009004CA1208F6007F
:101E1B000000009004CE1208F600000000754E0082
:101E2B00D007D006D005D004D003D002D001D0000B
:101E3B00D0D0D082D083D0F0D0E0328F2BEF33953F
:101E4B00E0FEC3EF9420EE64809480400BD3EF94BC
:101E5B007EEE6480948040037F00227E00E518258F
:101E6B002CFFEE3517FEC374809FE49E40137E005B
:101E7B00E51A252DFFEE3519FEC374409FE49E50E5
:101E8B00037F0022E4F532E532C3952D5077AF2B5B
:101E9B00EF3395E0FEEF24E0FFEE34FFFEAD2D7C3B
:101EAB0000120719EF2532FFEC3EFEEF25E0FFEEA7
:101EBB0033AB2EAA2FA9308F82F583120756F53438
:101ECB0085F033ECC3952C5038AE33E534A80408B9
:101EDB008005C333CE33CED8F9EE30E70DE5182CA1
:101EEB00FFE532251AFDAB318011E5182CFFE532E9
:101EFB00251AFDE5317B0070027B011221480C8015
:101F0B00C205328082E52C2518F518E43517F51734
:101F1B00AF2B228F228D238B24C3E5249FFFE494C8
:101F2B0000FE1226FB8F27C3E5259523FFE49400C3
:101F3B00FE1226FBA907E522C395247FFF50027FE3
:101F4B00018F28E523C395257FFF50027F01AC0746
:101F5B00E9FF3395E0FEE527FB3395E0FAC3EB9FF2
:101F6B00F52AEA9EF529AB26AD25AF24122148E5CB
:101F7B0022B52406E52365256067AB26AD23AF228A
:101F8B00122148E52A25E0F52CE52933F52BE9FF4D
:101F9B003395E0FEC3E49FFBE49EFAD3E52C9BEA6A
:101FAB006480F8E52B6480984010E52A9FF52AE5BC
:101FBB00299EF529E5282522F522AF27EF3395E059
:101FCB00FEC3E52C9FEE6480F8E52B648098509F50
:101FDB00EF252AF52AEE3529F529EC2523F5238063
:101FEB008E228F258E248D238C221226E28F298E12
:101FFB00288D278C26E4FFFEFDFCAB25AA24A92304
:10200B00A822C31208B97009752501F524F523F52B
:10201B0022C374FF9525FF74FF9524FE74FF95234F
:10202B00FD74FF9522FCAB29AA28A927A826D31259
:10203B0008B940421226E2AB29AA28A927A826D321
:10204B001208B950531226E2C374FF9529FB74FF93
:10205B009528FA74FF9527F974FF9526F8C3E525A3
:10206B009BFBE5249AFAE52399F9E52298F8D3121C
:10207B0008B940C080CF1226E2C3EF9529FFEE9539
:10208B0028FEED9527FDEC9526FCAB25AA24A9236C
:10209B00A822D31208B950DE22E4FF12269C7F201F
:1020AB001226B2E4FF1226B27FB01226B27FC812FC
:1020BB0026B2E4FF1226B27F101226B27F40122600
:1020CB00B27FFF1226EF7FA11226B27FA61226B295
:1020DB007FA81226B27F3F1226B27FA41226B27FB0
:1020EB00D31226B2E4FF1226B27FD51226B27FF0AE
:1020FB001226B27FD91226B27F221226B27FDA12B3
:10210B0026B27F121226B27FDB1226B27F20122656
:10211B00B27F8D1226B27F141226B27F0112269C3B
:10212B00E4FF122658122596E4F517F518F519F564
:10213B001A751C0122FFC3EC9500FDAB00EFC39495
:10214B008074809480507EEDC39440748094805052
:10215B0074E51B6009EB7E0070027E01AB06EB643D
:10216B00017031ED131313541F75F080A42FF582FA
:10217B00E435F0F583E5822400F582E5833400F540
:10218B0083E0FFED5407FEF87401088002C333D8D7
:10219B00FC4FF022ED131313541F75F080A42FF591
:1021AB0082E435F0F583E5822400F582E583340083
:1021BB00F583E0FFED5407FEF87401088002C3338A
:1021CB00D8FCF45FF02212267B787FE4F6D8FD75FD
:1021DB00816D02221B020B0BE493A3F8E493A34043
:1021EB0003F68001F208DFF48029E493A3F8540787
:1021FB00240CC8C333C4540F4420C8834004F45682
:10220B00800146F6DFE4800B0102040810204080B9
:10221B00902260E47E019360BCA3FF543F30E5093C
:10222B00541FFEE493A360010ECF54C025E060A8B9
:10223B0040B8E493A3FAE493A3F8E493A3C8C5824C
:10224B00C8CAC583CAF0A3C8C582C8CAC583CADFBA
:10225B00E9DEE780BE045255AB55B4035A000000CB
:10226B00014F00015900C10C44049000000000C153
:10227B000AC109016A00016B00014C01014B0044CA
:10228B0004B0000000004404B8000000004404D275
:10229B00000000004404B400000000014200014DA6
:1022AB0000014100014E00014000C10D4C04C6006D
:1022BB000000000000000000000000045D000000B2
:1022CB000001650001670001620001610001660009
:1022DB0001640001690001630000C0E0C0D075D04B
:1022EB0000C000C006C007C28C75A71085A3478528
:1022FB00A24885934985924AAEF9AEFAC28C122454
:10230B005A75FF0675FE0653E68F53BFCF539BCF0F
:10231B00C2DAAF06C3EF9401748094805022AF41B0
:10232B007E00EF640870057541048014EF64044E61
:10233B0070057541028009EF64024E70037541010F
:10234B00AF4CEF640A7005754C0B8006754C01752C
:10235B004B0CD007D006D000D0D0D0E032C0E0C0BC
:10236B00D075D000C000C004C005C006C00775A75B
:10237B0000C28C12245A53BFCF539BCFC2DAAF414A
:10238B007E00EF64086007AD4CED640A700B53E6FA
:10239B008F754C01754B0C8033EF64044E700D75CB
:1023AB0041087F0812255B75EC50801EE541FD7CD2
:1023BB0000640270077541047F04800BED64014CCF
:1023CB0070087541027F0212255BD28CD007D006B4
:1023DB00D005D004D000D0D0D0E0328B268A27890C
:1023EB0028E5297002C322AEA775A720D2C530C03D
:1023FB00FDC2C5C2C48FC2C2C030C0FD20C109D24C
:10240B00C4C2C020C4FD80358DC2C2C030C0FD2007
:10241B00C109D2C4C2C020C4FD8022AB260528E569
:10242B0028AA277002052714F91206C1F5C2C2C0EB
:10243B0030C0FD20C10BD2C4C2C020C4FD8EA7C3C7
:10244B0022D529D7D2C4C2C020C4FD8EA7D322E582
:10245B006D24FCF56DA2AFE433FFE56D2403F8A604
:10246B0007C2AFA86DA69EA86D08A6D9A2DEE4335D
:10247B00A86D0808F6C2DEE4F5D9C2DF75FAFF7560
:10248B00F9FEF59ED2DE30DFFDE4F5D8A86DE6F55A
:10249B009EA86D08E6F5D9A86D0808E624FF92DE24
:1024AB00E56D2403F8E624FF92AFE56D2404F56D8A
:1024BB00228B228A238924AB22AA23A9241206C1A8
:1024CB00FF603AC007782C7C007D007B007A007996
:1024DB00257E007F0512069B852A31D007121E46EA
:1024EB00AE07AB22AA23A9241206C1FF6E600122FC
:1024FB0074012524F524E43523F52380BAAB22AAF5
:10250B0023A9241206C1FF22E4F5E275D57FEF3033
:10251B00E004C2928002D292EF30E104C2938002B7
:10252B00D293EF30E204C2958002D295EF30E304F0
:10253B00C2968002D296EF30E404D2918002C2910F
:10254B00EF30E50643F210C29422D29453F2EF22FD
:10255B00EF24FE601424FE601824FC601C2407701A
:10256B002075D579754D01801A75D575754D02801D
:10257B001275D55D754D04800A75D53D754D088076
:10258B0002C32253F2EF75E202D322E4F522C3E534
:10259B0022940874809480502BE52224B0FF1226DD
:1025AB00B2E4FF1226B27F101226B2E52275F0803C
:1025BB00A42400F9740035F0FA7B017D8012270703
:1025CB00052280CA228F29E4F52AC3E52A940874D0
:1025DB008094805023C283E52930E704D2848002A3
:1025EB00C2847F01122710D2837F01122710E529A5
:1025FB0025E0F529052A80D2228F2B8E2A8D298C56
:10260B00281226E2C3EF952BFFEE952AFEED9529B6
:10261B00FDEC9528FCAB2FAA2EA92DA82CD31208C4
:10262B00B9500122C322EFB40A07740D12263C7471
:10263B000A309811A899B8130CC2983098FDA89934
:10264B00C298B811F63099FDC299F59922E4FDFCB8
:10265B00EF7EFF7001FE74002DF58274003CF58354
:10266B00EEF00DBD00010CE4B505E5ECB404E12280
:10267B007597DE7597AD75A72075C68475A710E4A1
:10268B00F5A9E5A9548060FA75A720E4F5B5F5A77F
:10269B0022EF60087522AF751D0180067522AEE42E
:1026AB00F51DAF220226B28F237B007A00792375AA
:1026BB002901E4FD7F780223E68F28C2857F401233
:1026CB0025D0AF281225D0D285227517008F18AFD1
:1026DB00057519008F1A22C2ADAF60AE5FAD5EAC4F
:1026EB005DD2AD228F227F811226B2AF220226B29B
:1026FB00EE30E707C3E49FFFE49EFE228D297D4069
:10270B007F780223E67E0B00DEFDDFF922E4F5087D
:10271B00F51E22AF64E4F564220000000000000007
:10272B00000000000000000000000000001000107E
:10273B00001000100010001000000010000000003E
:10274B000028002800280000000000000000000006
:10275B000000000000240024007C00240048007CC2
:10276B0000480048000000000038005400500038BA
:10277B0000140054005400380010000000200054D6
:10278B00005800300028005400140008000000001E
:10279B0000100028002800100034004800480034C6
:1027AB0000000000001000100010000000000000EE
:1027BB0000000000000000000008001000200020B6
:1027CB000020002000200020001000080020001036
:1027DB00000800080008000800080008001000208E
:1027EB00001000380010002800000000000000005E
:1027FB00000000000000000000100010007C001022
:10280B0000100000000000000000000000000000AD
:10281B00000000000000001000100010000000007D
:10282B000000000000000038000000000000000065
:10283B00000000000000000000000000000000107D
:10284B00000000000008000800100010001000102D
:10285B000020002000000000003800440044005419
:10286B000044004400440038000000000010003019
:10287B0000500010001000100010001000000000AD
:10288B000038004400440004000800100020007CC5
:10289B00000000000038004400040018000400048D
:1028AB000044003800000000000800180028002831
:1028BB000048007C0008000800000000007C00407D
:1028CB0000400078000400040044003800000000C1
:1028DB0000380044004000780044004400440038B5
:1028EB0000000000007C0004000800100010002015
:1028FB000020002000000000003800440044003895
:10290B00004400440044003800000000003800443C
:10291B0000440044003C0004004400380000000068
:10292B00000000000010000000000000000000107C
:10293B00000000000000000000000010000000007C
:10294B00000000100010001000000000000C003010
:10295B0000400030000C00000000000000000000F0
:10296B000000007C0000007C000000000000000064
:10297B000000000000600018000400180060000058
:10298B000000000000380044000400080010001094
:10299B00000000100000000000380044004C005400
:1029AB00005C0040004000380000000000100028D0
:1029BB00002800280028007C004400440000000090
:1029CB000078004400440078004400440044007840
:1029DB000000000000380044004000400040004070
:1029EB000044003800000000007000480044004420
:1029FB00004400440048007000000000007C0040D0
:102A0B000040007C004000400040007C00000000C3
:102A1B00007C004000400078004000400040004037
:102A2B00000000000038004400400040005C0044FF
:102A3B000044003800000000004400440044007CC7
:102A4B000044004400440044000000000038001023
:102A5B0000100010001000100010003800000000E3
:102A6B0000040004000400040004000400440038C7
:102A7B000000000000440048005000600050004877
:102A8B0000480044000000000040004000400040AF
:102A9B00004000400040007C000000000044006C3F
:102AAB00006C00540044004400440044000000004B
:102ABB0000440064006400540054004C004C00447B
:102ACB00000000000038004400440044004400446F
:102ADB00004400380000000000780044004400442B
:102AEB000078004000400040000000000038004427
:102AFB00004400440044004400540038000400002B
:102B0B00007800440044004400780048004800442A
:102B1B0000000000003800440040003000080004B2
:102B2B000044003800000000007C00100010001072
:102B3B0000100010001000100000000000440044C2
:102B4B0000440044004400440044003800000000EE
:102B5B000044004400440028002800280010001006
:102B6B000000000000440044005400540054006C6A
:102B7B000028002800000000004400280028001056
:102B8B00001000280028004400000000004400440E
:102B9B00002800280010001000100010000000009A
:102BAB00007C000400080010001000200040007C96
:102BBB0000000000001800100010001000100010A2
:102BCB000010001000100018002000200010001052
:102BDB00001000100008000800000000003000107A
:102BEB00001000100010001000100010001000303A
:102BFB000010002800280044000000000000000026
:102C0B0000000000000000000000000000000000B9
:102C1B0000000000000000FE00200010000000007B
:102C2B000000000000000000000000000000000099
:102C3B0000380044003C0044004C0034000000000D
:102C4B0000400040005800640044004400640058F9
:102C5B00000000000000000000380044004000406D
:102C6B000044003800000000000400040034004C55
:102C7B0000440044004C0034000000000000000041
:102C8B0000380044007C0040004400380000000085
:102C9B00000C0010007C0010001000100010001041
:102CAB0000000000000000000034004C0044004411
:102CBB00004C0034000400780040004000580064D1
:102CCB0000440044004400440000000000100000D9
:102CDB000070001000100010001000100000000029
:102CEB000010000000700010001000100010001009
:102CFB00001000E000400040004800500060005011
:102D0B00004800440000000000700010001000108C
:102D1B000010001000100010000000000000000068
:102D2B00007800540054005400540054000000007C
:102D3B0000000000005800640044004400440044BC
:102D4B000000000000000000003800440044004474
:102D5B000044003800000000000000000058006430
:102D6B000044004400640058004000400000000094
:102D7B000034004C00440044004C003400040004B8
:102D8B00000000000058006400400040004000407C
:102D9B000000000000000000003800440030000874
:102DAB0000440038000000000020002000780020C4
:102DBB000020002000200018000000000000000090
:102DCB000044004400440044004C00340000000068
:102DDB0000000000004400440028002800280010D8
:102DEB000000000000000000005400540054006C70
:102DFB00002800280000000000000000004400280C
:102E0B00001000100028004400000000000000002B
:102E1B00004400440028002800100010001000603F
:102E2B0000000000007C0008001000200040007C27
:102E3B0000000000001800100010001000200020FF
:102E4B0000100010001000180010001000100010EF
:102E5B0000100010001000100010001000300010C7
:102E6B0000100010000800080010001000100030C7
:102E7B000000000000000074004C00000000000087
:102E8B000000000000000000000000000000000037
:102E9B000000000000000000000000000000000027
:102EAB0000000000000000000000000C000C000CF3
:102EBB00000C000C000C000C000C000C000C000CA7
:102ECB000000000C000C0000000000000000001BC4
:102EDB00001B001B001B001B00000000000000007B
:102EEB0000000000000000000000000000000000D7
:102EFB0000000019801980198019807FC07FC019CC
:102F0B008033007FC07FC0330033003300330000B9
:102F1B00000000000000001E003F007580658074FB
:102F2B00003C001E00070005806580658075803FB2
:102F3B00001E0004000400000000007000D800D840
:102F4B0040D8C0D980730006000C001B8036C066C9
:102F5B00C046C006C0038000000000000000001E39
:102F6B00003F003300330033001E000C003CC066F2
:102F7B00C06380618063803EC01C80000000000045
:102F8B000000000C000C000C000C000C00000000FA
:102F9B000000000000000000000000000000000026
:102FAB000000000000008001000300060006000482
:102FBB00000C000C000C000C000C000C00040006B4
:102FCB000006000300010000802000100018000C18
:102FDB00000C0004000600060006000600060006B2
:102FEB000004000C000C0018001000200000000C66
:102FFB00002D003F001E0033000000000000000009
:10300B0000000000000000000000000000000000B5
:10301B00000000000000000C000C000C000C00FF76
:10302B00C0FFC00C000C000C000C000000000000E6
:10303B000000000000000000000000000000000085
:10304B000000000000000000000000000000000C69
:10305B00000C000400040008000000000000000049
:10306B0000000000000000000000001E001E000019
:10307B000000000000000000000000000000000045
:10308B000000000000000000000000000000000035
:10309B00000000000000000C000C0000000000000D
:1030AB0000000003000300030006000600060006F4
:1030BB00000C000C000C000C00180018001800008D
:1030CB00000000000000001E003F00330061806123
:1030DB008061806D806D8061806180618033003F95
:1030EB00001E00000000000000000006000E001E85
:1030FB000036002600060006000600060006000645
:10310B000006000600060000000000000000001E84
:10311B00003F007380618061800180030006000C1A
:10312B00001800300060007F807F800000000000EE
:10313B000000001C003E006300630003000E000E45
:10314B0000030001800180618073803F001E00003E
:10315B000000000000000006000E000E001E001E06
:10316B000016003600360066007F807F8006000662
:10317B0000060000000000000000007F007F0060E0
:10318B0000600060006E007F006380018001806141
:10319B008073803F001E0000000000000000001E36
:1031AB00003F003380618060006E007F00738061A0
:1031BB00806180618033803F001E000000000000B2
:1031CB000000007F807F8001800300030006000663
:1031DB00000C000C000C0008001800180018000070
:1031EB00000000000000001E003F00638061806152
:1031FB008021001E003F0061806180618061803F03
:10320B00001E0000000000000000001E003F0073C5
:10321B000061806180618073803F801D80018061CF
:10322B008073003F001E0000000000000000000043
:10323B00000000000000000C000C0000000000006B
:10324B00000000000000000C000C0000000000005B
:10325B00000000000000000000000000000C000C4B
:10326B0000000000000000000000000C000C000437
:10327B0000040008000000000000000000008003B4
:10328B00800E003800600038000E000380008000C4
:10329B000000000000000000000000000000000023
:1032AB000000007F807F80000000007F807F800017
:1032BB000000000000000000000000000000000003
:1032CB000000000000400070001C00070001800798
:1032DB00001C007000400000000000000000000017
:1032EB000000001F003F8071C060C000C001C00320
:1032FB008007000E000C000C0000000C000C0000FE
:10330B00000000000000001E003F00318071806350
:10331B00806F806D806D806F806780600032003EB3
:10332B00001C0000000000000000000E000E001B3F
:10333B00001B001B001B00318031803F803F803120
:10334B008060C060C060C000000000000000007C16
:10335B00007E0063006300630063007E007E0063F9
:10336B00006180618063807F007E000000000000B0
:10337B000000001E003F0031806180600060006033
:10338B0000600060006000618031803F001E000023
:10339B00000000000000007C007F00630063806180
:1033AB008061806180618061806180630063007EE9
:1033BB00007C0000000000000000007F807F806028
:1033CB00006000600060007F007F006000600060B4
:1033DB000060007F807F8000000000000000007F05
:1033EB00807F8060006000600060007F007F006075
:1033FB0000600060006000600060000000000000E2
:10340B000000001E003F00318061806000600060A2
:10341B0000638063806180618031803F801E00008B
:10342B0000000000000000618061806180618061AC
:10343B008061807F807F806180618061806180613D
:10344B0080618000000000000000003F003F000C86
:10345B00000C000C000C000C000C000C000C000C01
:10346B00000C003F003F00000000000000000001C6
:10347B008001800180018001800180018001800139
:10348B00806180618073803F001E0000000000009F
:10349B0000000060C061806300660066006C00780D
:1034AB00007C006600660063006180618060C00084
:1034BB000000000000000060006000600060006021
:1034CB000060006000600060006000600060007FD2
:1034DB00807F80000000000000000071C071C07B85
:1034EB00C07AC06AC06AC06EC064C060C060C06091
:1034FB00C060C060C060C000000000000000007130
:10350B008071807980798079806D806D806D806528
:10351B0080678067806780638063800000000000A5
:10352B000000001E003F00330061806180618061FC
:10353B0080618061806180618033003F001E0000EC
:10354B00000000000000007E007F0063806180614E
:10355B0080618063807F007E00600060006000609F
:10356B0000600000000000000000001E003F003360
:10357B0000618061806180618061806180658067AE
:10358B008033003F801E4000000000000000007EE2
:10359B00007F0063806180618063807F007E0066B6
:1035AB0000630063006180618060C0000000000068
:1035BB000000000E001F0031803180300038001EEB
:1035CB0000070003806180618031803F001E000096
:1035DB0000000000000000FFC0FFC00C000C000C3E
:1035EB00000C000C000C000C000C000C000C000C70
:1035FB00000C000000000000000000618061806191
:10360B0080618061806180618061806180618061A7
:10361B008073803F001E000000000000000000606F
:10362B00C060C060C03180318031801B001B001B2B
:10363B00001B000E000E000E000400000000000036
:10364B00000000C0C0C0C0C0C0C0C0C0C0CCC04C17
:10365B00804C805E805280528073806180618000DC
:10366B0000000000000000C0C06080618033003BA0
:10367B00001E000C000C001E001F003B007180613F
:10368B0080C0C00000000000000000C0C06180616D
:10369B0080330033001E001E000C000C000C000CCD
:1036AB00000C000C000C0000000000000000003FAC
:1036BB00803F8001800300030006000C000C001803
:1036CB00001800300060007F807F80000000000049
:1036DB00000F000F000C000C000C000C000C000C79
:1036EB00000C000C000C000C000C000C000C000C6F
:1036FB00000F000F0000001800180018000C000C41
:10370B00000C000C00060006000600060003000378
:10371B000003000000000000001E001E0006000653
:10372B00000600060006000600060006000600065E
:10373B000006000600060006001E001E0000000C1E
:10374B00000C001E0012003300330061806180000A
:10375B00000000000000000000000000000000005E
:10376B00000000000000000000000000000000004E
:10377B00000000000000000000000000000000003E
:10378B0000FFE000000000380018000C00000000F3
:10379B00000000000000000000000000000000001E
:1037AB00000000000000000000000000000000000E
:1037BB000000001F003F80618001801F803F8061FF
:1037CB008063807F8038C000000000000000006034
:1037DB00006000600060006E007F0073806180619C
:1037EB00806180618073807F006E000000000000AC
:1037FB0000000000000000000000001E003F0073EE
:10380B0080618060006000618073803F001E00005B
:10381B000000000000000001800180018001801D7C
:10382B00803F807380618061806180618073803FA5
:10383B00801D800000000000000000000000000060
:10384B000000001E003F00730061807F807F80605E
:10385B000071803F001E0000000000000000000708
:10386B00C00FC00C000C007F807F800C000C000C84
:10387B00000C000C000C000C000C00000000000001
:10388B000000000000000000001D803F807380617D
:10389B008061806180618073803F801D80018063C7
:1038AB00807F003E00000060006000600060006FE1
:1038BB00007F807180618061806180618061806147
:1038CB008061800000000000000000060006000080
:1038DB000000003E003E0006000600060006000643
:1038EB0000060006000600000000000000060006AF
:1038FB0000000000003E003E000600060006000629
:10390B00000600060006000600060046007E003C8E
:10391B000000006000600060006000618063006672
:10392B00006C007C00760063006300618060C00067
:10393B00000000000000003E003E000600060006EE
:10394B00000600060006000600060006000600063C
:10395B000006000000000000000000000000000056
:10396B00000000DD80FFC0CEC0CCC0CCC0CCC0CC32
:10397B00C0CCC0CCC0CCC0000000000000000000D8
:10398B00000000000000006F007F8071806180618B
:10399B008061806180618061806180000000000037
:1039AB0000000000000000000000001E003F00733C
:1039BB0080618061806180618073803F001E0000A8
:1039CB00000000000000000000000000006E007FFF
:1039DB00007380618061806180618073807F006E85
:1039EB00006000600060006000000000000000004C
:1039FB00001D803F80738061806180618061807376
:103A0B00803F801D800180018001800180000000CB
:103A1B000000000000000067003F803900300030DC
:103A2B00003000300030003000300000000000009B
:103A3B0000000000000000000000001E003F80613D
:103A4B008060007F003F80018061807F001E00004E
:103A5B000000000000000000000800180018007FA4
:103A6B00007F001800180018001800180018001F1D
:103A7B00800F80000000000000000000000000002C
:103A8B000000006180618061806180618061806184
:103A9B008063807F803D80000000000000000000FC
:103AAB000000000000000060C03180318031801BBD
:103ABB00001B001B000E000E0006000000000000A3
:103ACB000000000000000000000000DD80DD80DD54
:103ADB00805500550055007700770022002200002A
:103AEB00000000000000000000000000000000616A
:103AFB0080330033001E000C000C001E003300331B
:103B0B0000618000000000000000000000000000C9
:103B1B0000618061803180330033001B001B001B70
:103B2B00000E000E000E001C007C00700000000058
:103B3B00000000000000007FC07FC0018003000672
:103B4B00000C00180030007FC07FC0000000000098
:103B5B000003800780060006000600060006000E24
:103B6B00001C001C000E00060006000600060006E6
:103B7B00000780038006000600060006000600060C
:103B8B0000060006000600060006000600060006FA
:103B9B0000060006000600060038003C000C000C76
:103BAB00000C000C000C000E00070007000E000CB0
:103BBB00000C000C000C000C003C00380000000056
:103BCB00000000000000000000000038807F8047EC
:103BDB0000000000000000000000000000000000DA
:103BEB0000000000000000000000000000000000CA
:103BFB0000000000000000000000000000000000BA
:103C0B0000000000000000000000000000000000A9
:103C1B00000000000003E003E003E003E003E00327
:103C2B00E003E003E003C003C001C001C001C00119
:103C3B00C001C000000000000003E003E003E0004F
:103C4B000000000000000000001E3C1E3C1E3C1E3D
:103C5B003C1E3C1E3C1E3C0000000000000000000F
:103C6B000000000000000000000000000000000049
:103C7B000000000000000000000000000001CE0367
:103C8B00CE03DE039E039C079C3FFF7FFF07380F8D
:103C9B00380F780F780E78FFFFFFFF1EF01CF01C1B
:103CAB00E03CE03DE039E0000000000000000000D7
:103CBB000003FC0FFE1FEE1EE01EE01EE01EE01FC9
:103CCB00E00FE007E003F001FC01FE01FE01FE0145
:103CDB00FE01FE01FE3DFE3FFC0FF001E001E000A6
:103CEB0000000000003E03F707E78FE78EE39EE33B
:103CFB00BCE7B8E7F8F7F03FE001C003FF07FF07A9
:103D0B00F30FF31EF33CF338F378F3F07FE03F004F
:103D1B0000000000000000000007E00FF80F781F04
:103D2B00781F781F780F780FF00FE01F807FC3FB91
:103D3B00C3F3E7F1F7F0F7F0FFF07FF83E7C7F3F3E
:103D4B00FF1FEF0000000000000000000003E00375
:103D5B00E003E003E003E003C001C000000000004B
:103D6B000000000000000000000000000000000048
:103D7B000000000000000000000000000000000038
:103D8B0000003F007C01F001E003C007C007800783
:103D9B00800F800F000F000F000F000F000F000FA0
:103DAB00800780078007C003C001E001F0007C00A2
:103DBB003F000F00007E001F0007C003C001E001A1
:103DCB00F000F000F000F800780078007800780040
:103DDB0078007800F800F000F001F001E003C00774
:103DEB00C01F007E007800000003E003C001C03953
:103DFB00CE3FFF3F7F0320037007F80F781F3C0671
:103E0B00380000000000000000000000000000006F
:103E1B000000000000000000000000000000000097
:103E2B0000000000000000000001C001C001C00143
:103E3B00C001C001C001C0FFFFFFFF01C001C001F5
:103E4B00C001C001C001C000000000000000000064
:103E5B000000000000000000000000000000000057
:103E6B000000000000000000000000000000000047
:103E7B0000000003E003E003E003E001E001E001E8
:103E8B00E001C00380000000000000000000000003
:103E9B0000000000000000000000003FFE3FFE009D
:103EAB000000000000000000000000000000000007
:103EBB0000000000000000000000000000000000F7
:103ECB0000000000000000000000000000000000E7
:103EDB00000000000000000000000003E003E0030E
:103EEB00E003E000000000000000000000000F00F5
:103EFB000F001E001E003C003C0078007800F00014
:103F0B00F001E001E003C003C0078007800F000F42
:103F1B00001E001E003C003C0078007800F0000002
:103F2B000007F00FF81F7C3E3E3C1E7C1F7C1F7869
:103F3B000F780F780F780F780F780F780F7C1F7C26
:103F4B001F3C1E3E3E1F7C0FF807F00000000000D8
:103F5B00000000000000F007F03FF03FF001F0011F
:103F6B00F001F001F001F001F001F001F001F001BE
:103F7B00F001F001F001F001F001F03FFF3FFF0015
:103F8B000000000000000000000FE03FF83C7C0048
:103F9B003C003E003E003E003C003C007C00F80133
:103FAB00F003E007C007800F001E003E003C003FFF
:103FBB00FE3FFE000000000000000000000FF01F9D
:103FCB00F81C7C003E003E003E003C003C00F80F1D
:103FDB00F00FF8007C003E001E001E001E001E00AD
:103FEB003E1C7C1FF81FE0000000000000000000DA
:103FFB0000007800F800F801F803F807F807F80F4D
:10400B00781E781E783C7878787878FFFFFFFF0071
:10401B0078007800780078007800780000000000C5
:10402B0000000000001FFC1FFC1FFC1E001E001EDA
:10403B00001E001E001FE01FF800FC007C003E006D
:10404B003E001E003E003E003C1C7C1FF81FE000A3
:10405B0000000000000000000001FC07FE0F8E1F97
:10406B00001E003E003C003C003DF83FFC7F3E7EC6
:10407B001F3C0F3C0F3C0F3C0F3E0F1E1F1F3E0FF4
:10408B00FC03F0000000000000000000003FFF3FB9
:10409B00FF3FFF000F001E001E003C0038007800A1
:1040AB00F000F001E001E003C003C007800F800FB8
:1040BB00800F001F001F0000000000000000000028
:1040CB000007F80FFC1F3E1E1E3E1E3E1E1E1E1F2F
:1040DB003C0FF807F00FF81EFC3E3E3C1F7C1F7C8C
:1040EB000F7C0F3C1F3F3E1FFC07F0000000000041
:1040FB00000000000007F00FF81E7C3C3E3C1E7CCD
:10410B001F7C1F7C1F7C1F3C1F3E3F1FFF07EF00C8
:10411B001F001E001E003E003C38F83FF01FE00061
:10412B000000000000000000000000000000000084
:10413B00000000000003E003E003E003E0000000E8
:10414B00000000000000000000000003E003E0039B
:10415B00E003E00000000000000000000000000091
:10416B0000000000000000000003E003E003E00398
:10417B00E000000000000000000000000000000351
:10418B00E003E003E003E001E001E001E003C00332
:10419B008000000000000000000000000000030091
:1041AB000F003F00FC03F00FC03F00FE003F000F6D
:1041BB00C003F000FC003F000F00030000000000F4
:1041CB0000000000000000000000000000000000E4
:1041DB00000000000000000000FFFFFFFF000000D8
:1041EB00000000FFFFFFFF000000000000000000C8
:1041FB0000000000000000000000000000000000B4
:10420B000000000000E000F8007E001F8007E001C6
:10421B00F8007E001F007E01F807E01F807E00F88B
:10422B0000E000000000000000000000001FF03F55
:10423B00FC383E381F381F001E001E003C00780063
:10424B00F001E003C003C007C007C000000000007E
:10425B000007C007C007C0000000000000000000FE
:10426B000003F80FFE1F1E3E0F3C7F78FF79EF73A4
:10427B00C7F3C7F38FF38FF38FF39FF39F73FF7B1B
:10428B00FF79F73C001F1C0FFC03F8000000000037
:10429B00000000000000000000000003E003E00746
:1042AB00F007F007F00F780F780E7C1E3C1E3C3C9D
:1042BB003E3FFE3FFF781F780FF00FF007F007002F
:1042CB000000000000000000000000000000003FA4
:1042DB00F83FFC3C3E3C1E3C1E3C1E3C3E3C7C3FA7
:1042EB00F03FF83C7E3C1F3C1F3C0F3C0F3C1F3FFC
:1042FB00FE3FF8000000000000000000000000007E
:10430B0000000001FF07FF1F873E003C007C007888
:10431B000078007800780078007C007C003E003F3D
:10432B00001F8307FF01FF000000000000000000DA
:10433B00000000000000007FF07FFC787E781F7883
:10434B001F780F780F780F780F780F780F780F781A
:10435B000F781F781E787E7FF87FE000000000004A
:10436B0000000000000000000000003FFF3FFF3E88
:10437B00003E003E003E003E003E003FFE3FFE3E44
:10438B00003E003E003E003E003E003FFF3FFF0070
:10439B000000000000000000000000000000001FF3
:1043AB00FF1FFF1E001E001E001E001E001E001F12
:1043BB00FF1FFF1E001E001E001E001E001E001E03
:1043CB00001E0000000000000000000000000000C4
:1043DB0000000003FE0FFF1F873E007C007C00786F
:1043EB0000F800F800F87FF87F780F7C0F7C0F3E09
:1043FB000F1F8F0FFF03FE000000000000000000E6
:10440B00000000000000007C1F7C1F7C1F7C1F7CB9
:10441B001F7C1F7C1F7C1F7FFF7FFF7C1F7C1F7CF3
:10442B001F7C1F7C1F7C1F7C1F7C1F00000000005B
:10443B0000000000000000000000003FFF3FFF03F2
:10444B00E003E003E003E003E003E003E003E00349
:10445B00E003E003E003E003E003E03FFF3FFF0086
:10446B000000000000000000000000000000001F22
:10447B00FC1FFC007C007C007C007C007C007C0032
:10448B007C007C007C007C007C0078007838F83F56
:10449B00F03FC00000000000000000000000000022
:1044AB000000003C1F3C1E3C3C3C783CF03DE03F98
:1044BB00E03FC03F803FC03FE03DF03CF03C783CEC
:1044CB007C3C3E3C1F3C0F00000000000000000045
:1044DB00000000000000003E003E003E003E003E9B
:1044EB00003E003E003E003E003E003E003E003ED1
:1044FB00003E003E003E003FFF3FFF00000000007B
:10450B000000000000000000000000F81FFC1FFC72
:10451B001FFE3FFE3FFE3FFF7FFF77FF77F7F7F76B
:10452B00E7F3E7F3E7F3C7F007F007F007F007004F
:10453B000000000000000000000000000000007CF4
:10454B000F7C0F7E0F7F0F7F0F7F8F7F8F7FCF7B38
:10455B00EF79EF79FF78FF78FF787F783F783F78B6
:10456B001F781F000000000000000000000000008A
:10457B0000000007F01FFC3E3E7C1F780F780FF801
:10458B000FF80FF80FF80FF80FF80F780F780F7C64
:10459B001F3E3E1FFC07F000000000000000000063
:1045AB00000000000000003FFC3FFF3E1F3E0F3E9F
:1045BB000F3E0F3E0F3E1F3E3F3FFC3FF03E003E87
:1045CB00003E003E003E003E003E000000000000AA
:1045DB00000000000000000000000007F01FFC3E80
:1045EB003E7C1F780F780FF80FF80FF80FF80FF8C5
:1045FB000FF80F780F780F7C1F3E3E1FFC07F8005B
:10460B007C003F000F000300000000000000003F93
:10461B00F03FFC3C7E3C3E3C1E3C1E3C3E3C3C3C4E
:10462B00FC3FF03FE03DF03CF83C7C3C3E3C1E3C0C
:10463B001F3C0F0000000000000000000000000005
:10464B0000000007FC1FFE3E0E3C003C003C003E01
:10465B00001FC00FF803FE007F001F000F000F208C
:10466B001F3C3E3FFC1FF00000000000000000005C
:10467B0000000000000000FFFFFFFF03E003E0036A
:10468B00E003E003E003E003E003E003E003E00307
:10469B00E003E003E003E003E003E00000000000C0
:1046AB0000000000000000000000007C0F7C0F7C6D
:1046BB000F7C0F7C0F7C0F7C0F7C0F7C0F7C0F7C97
:1046CB000F7C0F7C0F3C1E3C1E3E3E1FFC07F00078
:1046DB00000000000000000000000000000000F0DF
:1046EB0007F007F807780F7C0F3C1E3C1E3E1E1E82
:1046FB003C1F3C1F780F780FF807F007F007F0030B
:10470B00E003E000000000000000000000000000DB
:10471B00000000E003F003F003F007F3E7F3E7F327
:10472B00E773E77BF77FF77FFF7F7F7F7F7F7E3F9F
:10473B007E3E3E3E3E3E3E0000000000000000007C
:10474B0000000000000000F8077C0F3E1E3E3E1FDD
:10475B003C0FF807F007E003E003E007F00FF80F5A
:10476B007C1E7C3C3E781F780FF00F000000000091
:10477B000000000000000000000000F80778077C34
:10478B000F3C1E3E1E1F3C0F780FF807F003E00393
:10479B00E003E003E003E003E003E003E003E000F9
:1047AB000000000000000000000000000000007F7F
:1047BB00FF7FFF000F001F003E007C00F800F001A0
:1047CB00E003E007C00F800F001E003E007C007F5F
:1047DB00FF7FFF0000000000000000000007FF0744
:1047EB008007800780078007800780078007800786
:1047FB008007800780078007800780078007800776
:10480B00800780078007800780078007FF07FF006E
:10481B0000780078003C003C001E001E000F000FCB
:10482B00000780078003C003C001E001E000F00037
:10483B00F000780078003C003C001E001E000F00CA
:10484B000F000700007FF000F000F000F000F00018
:10485B00F000F000F000F000F000F000F000F000CD
:10486B00F000F000F000F000F000F000F000F000BD
:10487B00F000F07FF07FF0000000C001C001C0032A
:10488B00E003E007F007F007780F780F381E3C1EA7
:10489B003C3C1E3C1E380F780F78070000000000D0
:1048AB0000000000000000000000000000000000FD
:1048BB0000000000000000000000000000000000ED
:1048CB0000000000000000000000000000000000DD
:1048DB0000000000000000FFFFFFFF0000000000D1
:1048EB000000F000000000000000000000000000CD
:1048FB0000000000000000000000000000000000AD
:10490B00000000000000000000000000000000009C
:10491B00000000000000000000000000000000008C
:10492B00000FF83FFC3C7C003E003E003E07FE1FA4
:10493B00FE3E3E7C3E783E7C3E7C7E3FFF1FCF00A2
:10494B000000000000000000003C003C003C003C6C
:10495B00003C003C003DF83FFE3F3E3E1F3C0F3C01
:10496B000F3C0F3C0F3C0F3C0F3C1F3C1E3F3E3F90
:10497B00FC3BF00000000000000000000000000005
:10498B0000000000000000000003FE0FFF1F873E29
:10499B00003E003C007C007C007C003C003E003E66
:1049AB00001F870FFF03FE00000000000000000047
:1049BB0000001F001F001F001F001F001F07FF1F0D
:1049CB00FF3E3F3C1F7C1F7C1F7C1F781F781F7C8A
:1049DB001F7C1F3C3F3E7F1FFF0FDF0000000000CE
:1049EB0000000000000000000000000000000000BC
:1049FB000003F80FFC1F3E3E1E3C1F7C1F7FFF7FFA
:104A0B00FF7C007C003C003E001F070FFF03FE00F5
:104A1B0000000000000000000001FF03E103C007DD
:104A2B00C007C007C07FFF7FFF07C007C007C007D5
:104A3B00C007C007C007C007C007C007C007C00733
:104A4B00C007C000000000000000000000000000D4
:104A5B0000000000000000000007EF1FFF3E7F3C3E
:104A6B001F7C1F7C1F781F781F781F7C1F7C1F3CAF
:104A7B003F3E7F1FFF0FDF001E001E001E387C3FD6
:104A8B00F83C003C003C003C003C003C003DFC3F43
:104A9B00FE3F9E3F1F3E1F3C1F3C1F3C1F3C1F3CCD
:104AAB001F3C1F3C1F3C1F3C1F3C1F000000000015
:104ABB00000000000001F001F00000000000000009
:104ACB00007FE07FE001E001E001E001E001E001B7
:104ADB00E001E001E001E001E001E001E001E000C4
:104AEB0000000000000000000000F800F8000000CB
:104AFB0000000000003FF83FF800F800F800F80055
:104B0B00F800F800F800F800F800F800F800F800DA
:104B1B00F800F800F800F800F071F07FE03C003C82
:104B2B00003C003C003C003C003C1F3C3E3C7C3CC1
:104B3B00F83DF03DE03FC03FC03FE03DF03CF83C6E
:104B4B007C3C3E3C1F3C1F000000000000000000AE
:104B5B00007FF001F001F001F001F001F001F00134
:104B6B00F001F001F001F001F001F001F001F001B2
:104B7B00F001F001F001F001F001F0000000000085
:104B8B00000000000000000000000000000000001A
:104B9B0000F79EFFFFFFFFFFFFFBE7F9E7F1C7F110
:104BAB00C7F1C7F1C7F1C7F1C7F1C7F1C7F1C7002B
:104BBB0000000000000000000000000000000000EA
:104BCB0000000000003DFC3FFE3F9E3F1F3E1F3C90
:104BDB001F3C1F3C1F3C1F3C1F3C1F3C1F3C1F3CF2
:104BEB001F3C1F0000000000000000000000000040
:104BFB0000000000000000000007F01FFC3E3E3CE0
:104C0B001F7C1F780F780F780F780F780F7C1F3C65
:104C1B001F3E3E1FFC07F0000000000000000000DC
:104C2B00000000000000000000000000003DF83F05
:104C3B00FE3F3E3E1F3C0F3C0F3C0F3C0F3C0F3CDE
:104C4B000F3C1F3E1E3F3E3FFC3FF83C003C003CF0
:104C5B00003C003C000000000000000000000000D1
:104C6B000007EE1FFE3E7E3C1E7C1E781E781E78D3
:104C7B001E781E781E7C1E7C3E3E7E1FFE0FDE00C5
:104C8B001E001E001E001E001E0000000000000083
:104C9B0000000000001F7F1FFF1FE71FC71F871F9C
:104CAB00001F001F001F001F001F001F001F001F01
:104CBB00001F0000000000000000000000000000CA
:104CCB0000000000000000000007FC1FFE1E0E3E4F
:104CDB00003E003F001FE007FC00FE003E001E00F0
:104CEB001E3C3E3FFC1FF0000000000000000000D7
:104CFB00000000000000000780078007807FFF7F17
:104D0B00FF078007800780078007800780078007E1
:104D1B00800780078007C003FF01FF000000000031
:104D2B000000000000000000000000000000000078
:104D3B00003C1E3C1E3C1E3C1E3C1E3C1E3C1E3CB6
:104D4B001E3C1E3C1E3C3E3C7E3EFE1FFE0FDE000C
:104D5B000000000000000000000000000000000048
:104D6B000000000000F007780F780F3C1E3C1E3E41
:104D7B001E1E3C1E3C0F780F780FF007F007F00358
:104D8B00E003E00000000000000000000000000055
:104D9B00000000000000000000F003F1E3F3E3F378
:104DAB00E7F3F7F3F77FF77F777F7F7F7F7F7F3E99
:104DBB003E3E3E3E3E3E3E00000000000000000036
:104DCB00000000000000000000000000007C0F3E0F
:104DDB001E3E3C1F3C0FF807F007F003E007F007FF
:104DEB00F80FF81E7C3E3E3C1F781F0000000000B1
:104DFB0000000000000000000000000000000000A8
:104E0B0000F807780F7C0F3C1E3C1E1E3C1E3C1FFF
:104E1B003C0F780FF807F007F003E003E003C00343
:104E2B00C003C007800F807F00000000000000005F
:104E3B0000000000003FFF3FFF001F003E007C0012
:104E4B00F801F003E007C00F801F001E003C007F3D
:104E5B00FF7FFF0000000000000000000001FE03C8
:104E6B00E003C003C003C003C001E001E001E001A7
:104E7B00C003C03F803F8003C001C001E001E001DF
:104E8B00E003C003C003C003C003E001FE007E00CB
:104E9B000001C001C001C001C001C001C001C001BF
:104EAB00C001C001C001C001C001C001C001C001EF
:104EBB00C001C001C001C001C001C001C001C001DF
:104ECB00C001C000003FC003E001E001E001E001D0
:104EDB00E001C003C003C001C001E000FE00FE0101
:104EEB00E001C003C003C001C001E001E001E0012B
:104EFB00E003E03FC03F00000000000000000000A6
:104F0B000000000000000000000000000000003F57
:104F1B00077FC773E7F1FFF07E0000000000000081
:104F2B000000000000000000000000000000000076
:104F3B000000000000000000000000000020002026
:104F4B000020002000200000002000000050005036
:104F5B000050000000000000000000000050005056
:104F6B0000F8005000F800500050000000200078BE
:104F7B0000A00070002800F00020000000C000C856
:104F8B00001000200040009800180000004000A016
:104F9B0000A0004000A80090006800000030003026
:104FAB000020004000000000000000000010002066
:104FBB000040004000400020001000000040002096
:104FCB00001000100010002000400000002000A87E
:104FDB00007000F8007000A8002000000000002006
:104FEB00002000F80020002000000000000000005E
:104FFB000000000000300030002000000000000026
:10500B00000000F80000000000000000000000009D
:10501B00000000000000003000300000000000081D
:10502B00001000200040008000000000007000888D
:10503B00009800A800C800880070000000200060E5
:10504B00002000200020002000700000007000886D
:10505B00000800700080008000F8000000F80008D5
:10506B0000100030000800880070000000100030B5
:10507B000050009000F800100010000000F80080B5
:10508B0000F00008000800880070000000380040A5
:10509B00008000F0008800880070000000F8000815
:1050AB000008001000200040008000000070008805
:1050BB000088007000880088007000000070008875
:1050CB00008800780008001000E0000000000000DD
:1050DB000020000000200000000000000000000085
:1050EB0000200000002000200040000000080010FD
:1050FB00002000400020001000080000000000000D
:10510B0000F8000000F80000000000000040002044
:10511B000010000800100020004000000070008804
:10512B000008003000200000002000000070008804
:10513B0000A800B800B000800078000000200050EC
:10514B000088008800F800880088000000F00088C4
:10515B00008800F00088008800F0000000700088D4
:10516B0000800080008000880070000000F0008844
:10517B00008800880088008800F0000000F800809C
:10518B00008000F00080008000F8000000F8008034
:10519B00008000F000800080008000000078008814
:1051AB00008000800098008800780000008800884C
:1051BB00008800F80088008800880000007000203C
:1051CB00002000200020002000700000003800109C
:1051DB00001000100010009000600000008800908C
:1051EB0000A000C000A0009000880000008000809C
:1051FB00008000800080008000F80000008800D84C
:10520B0000A800A800A8008800880000008800887B
:10521B0000C800A800980088008800000070008873
:10522B0000880088008800880070000000F000886B
:10523B00008800F000800080008000000070008873
:10524B000088008800A800900068000000F000882B
:10525B00008800F000A0009000880000007000881B
:10526B0000800070000800880070000000F800A8A3
:10527B000020002000200020002000000088008873
:10528B000088008800880088007000000088008873
:10529B0000880088008800500020000000880088EB
:1052AB00008800A800A800A8005000000088008813
:1052BB000050002000500088008800000088008803
:1052CB0000500020002000200020000000F8000803
:1052DB00001000700040008000F8000000780040D3
:1052EB0000400040004000400078000000000080BB
:1052FB0000400020001000080000000000780008AB
:10530B00000800080008000800780000002000508A
:10531B0000880000000000000000000000000000FA
:10532B00000000000000000000F8000000600060BA
:10533B000020001000000000000000000000000032
:10534B00006000100070009000780000008000806A
:10535B0000B000C8008800C800B0000000000000CA
:10536B0000700088008000880070000000080008B2
:10537B00006800980088009800680000000000009A
:10538B000070008800F800800070000000100028FA
:10539B000020007000200020002000000000000012
:1053AB0000700098009800680008000000800080E2
:1053BB0000B000C8008800880088000000200000B2
:1053CB000060002000200020007000000010000092
:1053DB0000100010001000900060000000800080A2
:1053EB00009000A000C000A0009000000060002012
:1053FB0000200020002000200070000000000000B2
:10540B0000D000A800A800A800A800000000000021
:10541B0000B000C800880088008800000000000071
:10542B0000700088008800880070000000000000F9
:10543B0000B000C800C800B00080000000000000F1
:10544B000068009800980068000800000000000049
:10545B0000B000C800800080008000000000000049
:10546B00007800800070000800F000000020002091
:10547B0000F80020002000280010000000000000B1
:10548B000088008800880098006800000000000079
:10549B0000880088008800500020000000000000F9
:1054AB000088008800A800A8005000000000000041
:1054BB000088005000200050008800000000000011
:1054CB0000880088007800080088000000000000B9
:1054DB0000F800100020004000F800000010002031
:1054EB0000200040002000200010000000200020C1
:1054FB0000200000002000200020000000400020C1
:10550B00002000100020002000400000004000A8F8
:10551B00001000000000000000000000000608FF63
:10552B004F38070AFF27240B12FF2E90101AFF3B50
:10553B00EC53657474696E67730043616C696272D6
:10554B006174650053656C66207465737400416209
:10555B006F7574004D61696E206D656E75004272DA
:10556B00696768746E6573730053637265656E73F8
:10557B006176657200506F77657262616E6B206D3C
:10558B006F6465004175742E20722E2073706565F3
:10559B006400536176652073657474696E6773007C
:1055AB0044697361626C656400456E61626C65642D
:1055BB00004553526D657465722076330053573A2C
:1055CB00202562752E2562752E2562750075707407
:1055DB00696D653A20256C7520730025342E346671
:1055EB002075460073746174653A2025627500431B
:1055FB007572723A20302E32206D410043757272F3
:10560B003A2032206D4100437572723A20323020BD
:10561B006D4100437572723A20323030206D41007B
:10562B00437572723A203078256278004553523AAE
:10563B00202025342E3266206D005644443A202516
:10564B006C64206D56004C444F3A20256C64206DE1
:10565B0056004443523A202025342E3266206D00EA
:10566B004645543A2020256C64206D560053573123
:10567B000053573200535733005736553C00000048
:10568B000000000000000000000000000000554575
:10569B0000000000000000000000000000000000FF
:1056AB0000554F000000000000000000000000004B
:1056BB000000000055590000000000000000000031
:1056CB000000000000555F0400005684000055697F
:1056DB0000000000000000000000000000000000BF
:1056EB0000557400000000000000000000000000E6
:1056FB0000000000558000000000000000000000CA
:10570B0000000000000000558F00000000000000AA
:10571B0000000000000000000000559D000000008C
:10572B000000000000000000000000553C0556D0B2
:10573B0056D75574010000000156D7000052556929
:0A574B0001000000FF56D700000027
:00000001FF
